:020000040000FA
:10000000D0050020D1020000D9020000DB02000070
:10001000DD020000DF020000E1020000000000003D
:10002000000000000000000000000000E3020000EB
:10003000E502000000000000E702000021130000BC
:10004000EB020000ED020000EF020000F1020000F0
:10005000F3020000F5020000F7020000F9020000C0
:10006000FB020000FD020000FF020000010300008F
:10007000030300000503000007030000090300005C
:100080000B0300000D0300000F030000110300002C
:1000900013030000150300001703000019030000FC
:1000A0001B0300001D0300001F03000021030000CC
:1000B000230300002503000027030000290300009C
:1000C0002B0300002D0300002F030000310300006C
:1000D000330300003503000037030000390300003C
:1000E0003B0300003D0300003F030000410300000C
:1000F00043030000450300004703000049030000DC
:100100004B0300004D0300004F03000051030000AB
:10011000530300005503000057030000590300007B
:100120005B0300005D0300005F030000610300004B
:10013000630300006503000067030000690300001B
:100140006B0300006D0300006F03000089030000D3
:1001500000000000000000008B0300008D03000081
:100160008F030000910300000000000093030000D3
:100170009503000097030000990300009B03000013
:100180009D0300009F030000A1030000A3030000E3
:10019000A5030000A7030000A9030000AB030000B3
:1001A000AD030000AF030000B1030000B303000083
:1001B000B5030000B7030000B9030000BB03000053
:1001C000BD030000BF030000C1030000C303000023
:1001D000C5030000C7030000C9030000CB030000F3
:1001E000CD030000CF030000D1030000D3030000C3
:1001F000D5030000D7030000D9030000DB03000093
:1002000000F002F800F03CF80AA090E8000C8244EC
:100210008344AAF10107DA4501D100F031F8AFF2C9
:10022000090EBAE80F0013F0010F18BFFB1A43F0D4
:1002300001031847E03D0000003E0000103A24BFD3
:1002400078C878C1FAD8520724BF30C830C144BF3B
:1002500004680C607047000000230024002500267D
:10026000103A28BF78C1FBD8520728BF30C148BF19
:100270000B6070471FB503F085FC1FBD10B510BDA6
:1002800000F0BFF81146FFF7F5FF01F0C3FD00F0E5
:10029000DDF803B4FFF7F2FF03BC00F0E5F800005F
:1002A0000138FDD170470000EFF3108072B670473F
:1002B000EFF310807047EFF3108062B6704730BFE5
:1002C000704780F311887047EFF31180704700008A
:1002D0004548804745480047FEE7FEE7FEE7FEE762
:1002E000FEE7FEE7FEE7FEE7FEE7FEE7FEE7FEE7E6
:1002F000FEE7FEE7FEE7FEE7FEE7FEE7FEE7FEE7D6
:10030000FEE7FEE7FEE7FEE7FEE7FEE7FEE7FEE7C5
:10031000FEE7FEE7FEE7FEE7FEE7FEE7FEE7FEE7B5
:10032000FEE7FEE7FEE7FEE7FEE7FEE7FEE7FEE7A5
:10033000FEE7FEE7FEE7FEE7FEE7FEE7FEE7FEE795
:10034000FEE7FEE7FEE7FEE7FEE7FEE7FEE7FEE785
:10035000FEE7FEE7FEE7FEE7FEE7FEE7FEE7FEE775
:10036000FEE7FEE7FEE7FEE7FEE7FEE7FEE7FEE765
:10037000FEE7FEE7FEE7FEE7FEE7FEE7FEE7FEE755
:10038000FEE7FEE7FEE7FEE7FEE7FEE7FEE7FEE745
:10039000FEE7FEE7FEE7FEE7FEE7FEE7FEE7FEE735
:1003A000FEE7FEE7FEE7FEE7FEE7FEE7FEE7FEE725
:1003B000FEE7FEE7FEE7FEE7FEE7FEE7FEE7FEE715
:1003C000FEE7FEE7FEE7FEE7FEE7FEE7FEE7FEE705
:1003D000FEE7FEE7FEE7FEE7FEE7FEE70448054925
:1003E000034A054B70470000B914000001020000E9
:1003F000D0030020D0050020D003002070477047B4
:100400007047754600F02CF8AE4605006946534625
:1004100020F00700854618B020B5FFF7DFFFBDE8E4
:1004200020404FF000064FF000074FF000084FF05B
:10043000000B21F00701AC46ACE8C009ACE8C009EC
:10044000ACE8C009ACE8C0098D46704710B5044659
:10045000AFF300802046BDE81040FFF71ABF000050
:10046000004870477003002001491820ABBEFEE72A
:10047000260002007047000010B50F4800F002FF90
:100480000E4800F0FFFE02210D4800F0ACFA0023F8
:100490001A4603210B4800F043F86223002203218F
:1004A000084800F086F80321064800F07BF8032195
:1004B000044800F009F810BD003800F0040800F00E
:1004C0000040024000800340012202FA01F1C160B5
:1004D000704732B1C0684FF0011202FA01F10840D2
:1004E0007047406801228A4042F48032104010F484
:1004F000803F08BF704740F470204FF4803202FA0A
:1005000001F1884370470A4601F00F0101236FF3A0
:100510000F0203FA01F11143826A114381627047AD
:1005200030B4446989004FF00F0C0CFA01FC02F062
:100530000F0524EA0C048D402C434461046A03F047
:10054000030324EA0C0C03FA01F14CEA01010162F5
:1005500002F00F018B1F032B84BF30BC7047C90012
:10056000C3694FF0300C30390CFA01FC02F0300254
:1005700023EA0C0302FA01F11943C16130BC704750
:1005800000EB411000F14001002003E08B6842F8CD
:10059000043B401CCB6813F4807F18BF70470828C9
:1005A000F4D370470268012303FA01F1114301609B
:1005B000704710B400EB4110910050F840CF0F226B
:1005C0008A4003F00F042CEA020C8C404CEA040C25
:1005D000C0F800C0D0F818C0C3F303242CEA020C02
:1005E0008C404CEA040CC0F818C0D0F804C0C3F327
:1005F00003142CEA020C8C404CEA040CC0F804C032
:10060000D0F81CC0C3F303542CEA020C8C404CEA13
:10061000040CC0F81CC013F4702F4FF001040DD06F
:10062000D0F814C0C3F302432CEA02028B401A43F1
:100630004261026904FA01F1114304E0026904FA1B
:1006400001F122EA0101016110BC704708B50321E4
:100650000A48FFF758FF00BF002203210748FFF7B1
:1006600038FF0028F8D003210448FFF72DFF6A4621
:1006700003210248FFF784FF009808BD0080034073
:1006800018480078082821D11748006817490860E1
:1006900000201549086015480068012805D1144953
:1006A00008600020134908601AE010480068B8B9D3
:1006B00010480068401C0F4908600A2810D3012028
:1006C0000B49086000200B49086009E006480068F3
:1006D00006490860012004490860002005490860B7
:1006E00070470000CD0000209400002098000020FA
:1006F000A00000209C0000200C48007806280DD1A6
:100700000B4800680B490860002009490860094847
:100710000068012809D10849086006E0044800681B
:10072000044908600120024908607047CD0000209C
:10073000640000206800002070000020002100E01C
:10074000491C8142FCD3704710B50C490C4800F09D
:1007500027FC0C49086000F043F800F039F800F07D
:100760005BF800F01FFAFFF787FE00F0BDFB00F01A
:10077000BBFD01F075F800F0C9FA10BD002D310184
:10078000800600F1D40000200E48006810B1012856
:1007900012D109E00C480078052804D1012009494C
:1007A00008600A4908600BE007480078052802D075
:1007B00000200449086003E000200249086000BFEF
:1007C00000BF704754000020CD00002060000020D2
:1007D0000248016841F470010160704788ED00E053
:1007E0000248016841F040410160704734EF00E089
:1007F000D0F8003412F0010F14BF0B438B43C0F844
:10080000003412F0020FD0F8202414BF114322EA62
:100810000101C0F82014704710B50F4800F032FDF8
:1008200000BF0D4800F042FD0028FAD00A48801CA5
:1008300000F028FD00BF0848801C00F037FD0028AC
:10084000F9D03021054800F0EAF80121044800F011
:10085000E6F800F0A7FA10BD090800F00010064005
:10086000003006402DE9F00301264FF0000C03256F
:10087000C2F3411706FA0CF40C4211D0D0F8C48F21
:100880004FEA4C0405FA04F928EA0908C0F8C48FB5
:10089000D0F8C48F07FA04F448EA0404C0F8C44F3F
:1008A0000CF1010C0CF0FF0CBCF1080FE2D3D0F8F6
:1008B00000C512F0010F14BF4CEA010C2CEA010C28
:1008C000C0F800C5D0F804C512F0020F14BF4CEAFE
:1008D000010C2CEA010CC0F804C5D0F808C512F0D0
:1008E000040F14BF4CEA010C2CEA010CC0F808C537
:1008F000D0F818C512F0080F14BF4CEA010C2CEA0E
:10090000010CC0F818C512F0100FD0F83C2514BF28
:100910000A438A43C0F83C25D0F80C2513F0010F98
:1009200014BF0A438A43C0F80C25D0F8102513F0F1
:10093000020F14BF0A438A43C0F81025D0F81425CB
:1009400013F0040F14BF0A438A43C0F81425D0F8EB
:100950001C2513F0080F14BF0A438A43C0F81C2556
:10096000D0F8442513F4007F14BF0A438A43C0F82B
:100970004425D0F8402513F4407F14BF0A438A432E
:10098000C0F84025D0F82825002B0CBF114322EADF
:100990000101C0F82815BDE8F00370470E4AC0F306
:1009A0000741D26E01238B401A420C4A1ABF02EB58
:1009B000C101496852F83110020AD1F82C354FF0C4
:1009C0000F0C0CFA02FC00F00F0023EA0C0390401D
:1009D0001843C1F82C05704700E00F40303D00007F
:1009E00050F82100704730B50C4605460022FFF74D
:1009F000FFFE21462846BDE8304000230122FFF7D4
:100A000031BF30B50C4605460022FFF7F1FE214606
:100A10002846BDE8304008230122FFF723BF30B548
:100A20000C46054608230122FFF71CFF21462846F5
:100A3000BDE830400122FFF7DBBE30B50C4605466D
:100A40000222FFF7D5FE21462846BDE830400923A3
:100A50000122FFF707BF30B50C4605460222FFF71B
:100A6000C7FE21462846BDE8304008230122FFF793
:100A7000F9BE30B50C4605460222FFF7B9FE214605
:100A80002846BDE8304008230122FFF7EBBE30B511
:100A90000C4605460222FFF7ABFE21462846BDE87C
:100AA000304008230122FFF7DDBE40F821207047C7
:100AB0002DE9F0412DED068B0546012229463648E9
:100AC00000F0E4F800BF344800F09AF80028FAD1AA
:100AD0000B21314800F09AF800BF2F4800F090F841
:100AE0000028FAD12C4800F09AF818B92A4800F0EA
:100AF0008FF887B20521284800F088F800BF264803
:100B000000F07EF80028FAD1234800F088F818B9E0
:100B1000214800F07DF886B26420FFF70FFE06EB57
:100B2000072084B2641104F48060B0B140F2FF7217
:100B300084EA0201491C484202F011FE41EC1A0B02
:100B40009FED160B53EC102B02F034FE41EC190B09
:100B500002F076FB08EE100A10E0204602F016FEC6
:100B600041EC1A0B9FED0D0B53EC102B02F022FE03
:100B700041EC190B02F064FB08EE100AB2EE040A15
:100B800028EE000ABDEEC00A10EE100A00B2BDEC5D
:100B9000068BBDE8F081000000000240000000006C
:100BA0000000C03F10B50F4800F06CFB0E4800F08D
:100BB00069FB0E48FFF7F2FE0D48FFF7EFFE042138
:100BC0000C48FFF748FF08210A48FFF736FF0122CB
:100BD00009480168094800F02FF8084800F01AF8A1
:100BE00010BD0000002000F0010800F0020C010020
:100BF0000208010000500040D40000200000024024
:100C0000406810F0010018BF012070474160704734
:100C100080687047016A41F01001016270474068C6
:100C200010F0010F05D110F0120F1CBF00F01C00D6
:100C30007047002070470000036A43F0100303620E
:100C4000002A14BF0E4A0F4A02EB820301EB830312
:100C500002EB820292005B1EB3FBF2F2521EC260F4
:100C6000D0F8C02F12F0010F08BF7047064A114498
:100C7000521CB1FBF2F1491E41F08001C160704786
:100C8000801A0600A08601007F47370142EA410131
:100C90000160704718480078022821D11748006881
:100CA00017490860002015490860154800680128A8
:100CB00005D1144908600020134908601AE0104863
:100CC0000068B8B910480068401C0F4908600A283D
:100CD00010D301200B49086000200B49086009E08F
:100CE00006480068064908600120044908600020A1
:100CF0000549086070470000CD00002084000020F6
:100D000088000020900000208C00002010B5FFF724
:100D1000D2FA002818BF012010BD000010B5002233
:100D200001211F48FFF7C1FE642000F097F801225F
:100D300011461B48FFF7B9FE642000F08FF8E2204F
:100D400001F080FA052000F089F82C2001F07AFAF1
:100D5000322000F083F82E2001F074FA322000F0E7
:100D60007DF82F2001F06EFA052000F077F823209F
:100D700001F068FA812001F065FA282001F062FA9A
:100D8000A22001F05FFAC82001F05CFAA02001F077
:100D900059FA402001F056FAAF2001F053FA10BD85
:100DA0000010064010B5274800F06CFA00BF254837
:100DB00000F07CFA0028FAD02248C01D00F062FA48
:100DC00000BF2048C01D00F071FA0028F9D01D486E
:100DD000401E00F057FA00BF1A48401E00F066FAA5
:100DE0000028F9D01748801C00F04CFA00BF1548C5
:100DF000801C00F05BFA0028F9D007211248FFF7A9
:100E00000EFE30211148FFF70AFE30211048FFF78F
:100E100006FE10210F48FFF702FE40210B48FFF7A6
:100E2000F0FD0848C01C00F02DFA00BF0548C01CAA
:100E300000F03CFA0028F9D002210748FFF7EFFD47
:100E400010BD0000020800F00010064000600040E5
:100E5000005000400040024000500240002105E0E8
:100E6000002200E0521C6E2AFCDB491C8142F7DBA9
:100E70007047002105E0002200E0521C012AFCDB43
:100E8000491C8142F7DB7047084401686FF3520147
:100E90001143016012F0020F14BFB0218C210162D6
:100EA00014BF4FF4306140F60C0141627047425864
:100EB00022F0010242507047425842F00102425073
:100EC000704708440168006911F0020F14BF400028
:100ED000401C70470844016811F0020F14BF51080C
:100EE000511E01617047000010B50C4800F0CAF9AE
:100EF000012210210A4800F019F80A4800F0C2F94E
:100F00004FF00610FFF74AFD01210748FFF7B1FD3A
:100F10000022C0210248FFF7B7FF10BD004000F0DB
:100F200000800240060800F000600240002A82684B
:100F300014BF114322EA01018160704721F03F0391
:100F40001844036813F0020F18BF520803699A1A75
:100F500011F0010F14BFC2618261704770B5044681
:100F6000C0210D48FFF7A3FF0C480068B0FBF4F563
:100F70002A46C0210848FFF7ADFFC0210648FFF709
:100F8000A0FF45082A46C4210348FFF7D7FFC02128
:100F90000148FFF791FF70BD00800240D40000209F
:100FA0002DE9F003AD4D02462868AD4B1840A0F185
:100FB0008053B3F5A02358D002F03809DFF8A4829B
:100FC000C2F38414B9F1100F24D0B9F1300F04BF6B
:100FD00047F230504FF400130CD03820904304BF38
:100FE0004FF40040C30105D012F0380F1CBF0020A1
:100FF000034613D09C4F12F4605F4FF0000618BFF9
:1010000000222CD057F8324044457DD307EBC20272
:101010005268DFE0002340461524EBE7A4F1090005
:10102000122822D29148D5F87CC04FF04C7350F86A
:1010300024002CF01C0C072CA8BF4CF0100CC5F899
:101040007CC02E6D4FF4002C16F4807FD2D1BCF101
:10105000010C0AD02E6D16F4807FF8D0CAE712F08A
:10106000380F18BFB9F1100F03D0BDE8F00300200E
:101070007047C2F30268DFF8F8C1002257F83290D7
:10108000E14503D307EBC202526803E0521C062A73
:10109000F4D33246C5F8C020D5F8B020DFF8D4C16B
:1010A00002EA0C0242F00042C5F8B020DFF8C8C1E5
:1010B000A4F109024C1E5CF828C0A444BCFBF1FC5E
:1010C000D5F8B0101943C5F8B01008EBC80101EB12
:1010D00041046A4902EB420201EBC40101EB8204C4
:1010E0006468C5F86441D5F864416FF0FF0808EB07
:1010F0000C2C44EA0C0CC5F864C151F82210D5F848
:10110000602102F4000200E05FE01143C5F86011C5
:10111000D5F86011D5F86021C1F38921C2F3090423
:10112000D5F86421C2F3042202F1010CD5F8642140
:1011300002F01F02521CB0FBF2F04A09C2F1000893
:101140004443424301EB481104EB5212484302EB83
:101150009020B0FBFCF041080846002257F832C04E
:10116000844503D307EBC200466802E0521C062AFE
:10117000F4D3C5F8C060D5F8600110F4000F1DBFAE
:10118000D5F8B00040F08040C5F8B000D5F8600157
:1011900004BF40F40000C5F860014FF40040D5F8EA
:1011A000682112F0010F02D1401E0028F7DC002850
:1011B00008BF002148D0D5F8B000184340F0010026
:1011C00040F01040C5F8B0003EE0521C062AFFF483
:1011D00019AF3246C5F8C020D5F8602122F40002CC
:1011E000C5F86021D5F8B020DFF894C002EA0C02FF
:1011F00042F00042C5F8B020002908BF4FF0000CB3
:101200000AD0B0FBF1FCBCF1000F18BFACF1010C2F
:101210000CF10101B0FBF1F10846002257F8324011
:10122000844203D307EBC200466802E0521C062A40
:10123000F4D3C5F8C060D5F8B00043EA8C2210435F
:1012400040F00040C5F8B000D5F8B00020F47000C0
:10125000C5F8B000BDE8F0030846704700E00F4055
:101260000000FF700024F400E43F0000C83D0000CF
:1012700040787D0100FC0FE0C03D0000343E0000DE
:10128000FF0300EFC0F307230749C0B2194401F080
:101290007043C1F3130143EA411141EA800040F079
:1012A000007001220260704700E60F40C0F3072281
:1012B0000849C0B2114401F07042C1F3130142EA7F
:1012C000411141EA800040F000700068002818BF1A
:1012D0000120704700EA0F404FF0E020016941F023
:1012E000050101617047000010B506480068322111
:1012F000B0FBF1F4204600F00EF8FFF7EDFF00F030
:1013000003F810BDD40000204FF0E020016941F047
:101310000201016170474FF0E021401E48617047B3
:1013200010B550480078401CC0B24E4908700228E1
:1013300005DB01204C49087000204A4908704B48E1
:101340000078401CC0B249490870052805DB01201F
:101350004749087000204549087046480078401CFD
:10136000C0B244490870192805DB012042490870C1
:1013700000204049087041480078401CC0B23F49F5
:101380000870322805DB01203D49087000203B49E8
:1013900008703C480088401C80B23A490880962872
:1013A00005DB01203849087000203649088037489D
:1013B000007828B9364A37480178374800F070F984
:1013C00000F01EF9354908703548007810B1012841
:1013D00011D109E031480078002804DD01203049AE
:1013E0000870304908700AE02C48007810B90020D5
:1013F0002B49087003E000202949087000BF00BF96
:10140000FFF7C2F9FFF778F900F064FAFFF742FC42
:10141000FFF736F921480078E8B923480088401CD6
:1014200080B221490880B0F5FA7F05DB01201F4911
:10143000087000201C4908801D480088401C80B2AC
:101440001B49088064280BDB01201A490870002022
:101450001749088004E000201349088014490880D7
:1014600010BD0000A4000020AE000020A500002058
:10147000AF000020A6000020B0000020A700002040
:10148000B1000020AA000020B200002008010020C6
:10149000C5000020C4000020BC000020CD000020BA
:1014A000CE000020CF000020AC000020B4000020BF
:1014B000A8000020B30000200448006840F4700039
:1014C00002490860024803490860704788ED00E05F
:1014D0000024F4001C010020014600202D2956D0D4
:1014E00014DC212976D2DFE801F030323436383A84
:1014F0003C3E40424446484A4C4E7575757575757C
:101500007575757575757575757554004C294ED062
:101510000ADCA1F14102092A5CD2DFE802F03E5B5D
:10152000594E4C443C524000592948D006DC4E29C3
:1015300037D052293DD055294CD136E05F2924D0EF
:10154000622943D06F2945D13EE03F2044E0062088
:1015500042E05B2040E04F203EE066203CE06D2012
:101560003AE07D2038E0072036E07F2034E06F202D
:1015700032E0772030E07C202EE039202CE05E2025
:101580002AE0792028E0712026E0082024E040208D
:1015900022E0002020E03D201EE077201CE0062015
:1015A0001AE0372018E0712016E03E2014E03820C1
:1015B00012E0502010E079200EE05E200CE06E205A
:1015C0000AE0762008E005E05C2005E07C2003E0EE
:1015D000392001E0002000BF00BF704710B5002295
:1015E00010210648FFF761FA8A2000F0A7F81022C0
:1015F00011460248FFF759FA10BD000000100640DE
:1016000038B50025002210212448FFF74EFA422069
:1016100000F094F8002401E0601CC4B2052CFBDB50
:10162000002405E000F0B4F80DF80400601CC4B21A
:10163000042CF7DB102211461848FFF736FA9DF804
:101640000000042800D101259DF80000022800D1E7
:1016500002259DF80000012800D103259DF8000017
:10166000402800D104259DF80000202800D1052540
:101670009DF80000102800D106259DF801000428DF
:1016800000D107259DF80100022800D108259DF80A
:101690000100012800D10925284638BD0010064068
:1016A0002DE9FF4105460E4617464FF0010800247C
:1016B00019E0285DFFF710FF0DF8140006EA080096
:1016C00028B11DF8140040F080000DF814004FEA16
:1016D00048604FEA1068385D012101EB44010DF8C4
:1016E0000100601CC4B2082CE3DB00221021124868
:1016F000FFF7DBF9402000F021F8102211460E48D8
:10170000FFF7D3F9002210210B48FFF7CEF9C020D4
:1017100000F014F8002405E01DF8040000F00EF8B5
:10172000601CC4B2102CF7DB102211460248FFF7F0
:10173000BCF9BDE8FF8100000010064070B504460A
:1017400020211148FFF76BF900251AE00022012142
:101750000E48FFF7AAF904F0010028B12022114633
:101760000948FFF7A2F904E0002220210648FFF70C
:101770009CF96410012211460448FFF796F9681C91
:10178000C5B2082DE2DB70BD0010064000300640F7
:1017900070B5002420211148FFF733F9002518E027
:1017A0006410002201210E48FFF77FF90122114643
:1017B0000B48FFF77AF920210848FFF711F908B123
:1017C00044F08004002201210548FFF76EF9681CEF
:1017D000C5B2082DE4DB204670BD000000100640B5
:1017E00000300640826912F0200FFBD10160704783
:1017F000D0F818C01CF0080FFAD1D0F82CC02CF08B
:10180000100CC0F82CC0D0F830C02CF0010C2CF417
:10181000407CC0F830C0D0F830C0B1EB021F34BFFC
:101820004CF0200C2CF0200CC0F830C038BF52080F
:10183000C900B1FBF2F1491C49088A09426201F072
:101840003F018162C36200218161C16A41F01001E0
:10185000C162016B40F20132114301637047000025
:1018600010B51148FFF70EFD1048FFF70BFD00BF44
:101870000E48FFF71BFD0028FAD040F60100FFF7E5
:101880008DF840F60140FFF789F80C214FF0402019
:10189000FFF7FDF860234FF416420548016805483C
:1018A000FFF7A6FF10BD0000041800F0000800F0CC
:1018B000D40000200000014070B505460C4604E04D
:1018C00014F8011B2846FFF78DFF20780028F7D178
:1018D00070BD00000E48006810B1012812D109E067
:1018E0000C480078042804D10120094908600A49FD
:1018F00008600BE007480078042802D00020044963
:10190000086003E000200249086000BF00BF704784
:1019100074000020CD0000208000002070B500245D
:1019200014E004F1B00000F08DFC102000F08AFCFF
:10193000002000F087FC002504E0002000F0BAFC45
:10194000681CC5B2842DF8DB601CC4B2092CE8DB2E
:1019500070BD00002DE9F04107460E461546984639
:10196000002475E0285DB02826DB285DF72823DCFD
:10197000601C285CA1281FDB285DB0385E2110FBAD
:1019800001F036490860601C285C00F2AD2009684F
:101990000844324908600846006840010860434630
:1019A000324639462D48006800F08CF8A01CC4B2BD
:1019B00006F11000C6B24BE0285DA12825DB285DAA
:1019C000A32822DC601C285CA1281EDB285DA1382E
:1019D0005E2110FB01F021490860601C285CA138E1
:1019E000096808441D49086008460068400108600D
:1019F0004346324639461948006800F063F8A01C97
:101A0000C4B206F11000C6B222E0285D20281DDB1A
:101A1000285D7E281ADC285D2038104908600846B9
:101A2000006800010860084600680D4908440B4939
:101A300008604346324639460848006800F086F898
:101A4000601CC4B206F10800C6B201E0601CC4B25A
:101A5000285D002886DCBDE8F08100001801002028
:101A600080CF03002DE9F04104460025FFF756FF23
:101A700000BF1CE0124E56F82460361D56F8252093
:101A80000F4E56F824607C36735D0D4E56F8246078
:101A90006836765D761E012707EBC606F1B2084E62
:101AA00056F824605436705DFFF754FF6D1C0448EF
:101AB00050F824000078A842DCD8BDE8F08100008E
:101AC000600300202DE9F04704460F4690469946F2
:101AD000002210211C48FEF7E8FF032000F084FBE1
:101AE000C4F3074000F080FBC4F3072000F07CFB48
:101AF000E0B200F079FB00251CE07819414600F0C7
:101B000075F94FF0000A10E000F064F80646B9F1EC
:101B1000000F03D1304600F0CDFB02E0F04300F0AF
:101B2000C9FB0AF1010000F0FF0ABAF1100FEBDB6C
:101B3000681CC5B2022DE0DB102211460248FEF7F8
:101B4000B4FFBDE8F0870000006000402DE9F047D9
:101B500004460F4690469946002210211C48FEF785
:101B6000A4FF032000F040FBC4F3074000F03CFB5F
:101B7000C4F3072000F038FBE0B200F035FB00258D
:101B80001CE07819414600F031F94FF0000A10E0EE
:101B900000F020F80646B9F1000F03D1304600F0FE
:101BA00089FB02E0F04300F085FB0AF1010000F040
:101BB000FF0ABAF1080FEBDB681CC5B2022DE0DBAF
:101BC000102211460248FEF770FFBDE8F0870000C2
:101BD0000060004070B5002400251BE04022114643
:101BE0000E48FEF762FF002220210C48FEF75DFF41
:101BF0006006040E40210948FEF7F2FE10B1601C99
:101C0000C4B200E0E4B2202211460448FEF74DFFC2
:101C1000681CC5B2082DE1DB204670BD00600040A5
:101C200010B504206149087061484860012081F8BE
:101C3000540081F86800002081F87C005D495B4811
:101C40008160032180F85510012180F8691000217E
:101C500080F87D105849C160012180F856100B2191
:101C600080F86A10002180F87E1054490161032138
:101C700080F857100F2180F86B10002180F87F103A
:101C80004F4908600020FFF7EDFE0820474981F822
:101C900090004C494548C0F89410012180F8E410A8
:101CA00080F8F810002180F80C114749C0F898100E
:101CB000012180F8E510062180F8F910002180F854
:101CC0000D114249C0F89C10012180F8E61007214F
:101CD00080F8FA10002180F80E113D49C0F8A010DC
:101CE000012180F8E710082180F8FB10002180F81E
:101CF0000F113849C0F8A410012180F8E81009211B
:101D000080F8FC10002180F810113349C0F8A810A9
:101D1000012180F8E9100A2180F8FD10002180F8E7
:101D200011112E49C0F8AC10012180F8EA100B21E6
:101D300080F8FE10002180F812112949C0F8B01077
:101D4000072180F8EB100D2180F8FF10002180F8AA
:101D5000131190301A4948600120144981F820017C
:101D600020491248C0F82411012180F8741180F82C
:101D70008811002180F89C1100F59070104988604E
:101D800001200A4981F8B00117490848C0F8B41188
:101D9000012180F8041280F81812002180F82C121A
:101DA00000F5D8700649C86010BD00002001002071
:101DB00000000020060000200C0000200E00002083
:101DC0006003002011000020180000201A000020ED
:101DD0001C0000201E000020200000202200002007
:101DE000260000202B0000203800002070B505469A
:101DF0000C46641E05F1AF0000F024FAC4F3031191
:101E000001F1100000F01EFA04F00F0000F01AFAC1
:101E100070BD00002DED068B40F6B836FEF794FC41
:101E200000BFC94800780328FBDBFFF7D7FBFEF7AC
:101E300075FFFFF7F5FEC548006840F6B831B0FB06
:101E4000F1F0C82100FB01F73846FEF729FAC0A1DE
:101E5000C348FFF731FDBD48006840F6B831B0FB1C
:101E6000F1F0C82100FB01F73846FEF719FABDA1D1
:101E7000BB48FFF721FDB548006840F6B831B0FB1C
:101E8000F1F0C82100FB01F73846FEF709FAB8A1C6
:101E9000B348FFF711FD56E1B9480078012802D197
:101EA0000020B7490870B7480078012802D1002007
:101EB000B4490870B448007801287DD10020B249A7
:101EC0000870FEF7C3FBB1490860B1480068401CC8
:101ED000AF490860192819D300200860AD48006890
:101EE0001821B0FBF1F04FF4A57100FB01F7384663
:101EF00001F04CFC9FEDA80B53EC102B01F07AFA8B
:101F0000A74A03C20020A349086006E0A148006870
:101F10009E49096808449F4908609C4909684FF434
:101F2000A57201FB02F001F031FC9FED9B0B53EC1D
:101F3000102B01F05FFA9B4A03C29FED9B0B53EC01
:101F4000102B974890ED000B51EC100B01F052FA5A
:101F500001F0A8FB0A2190FBF1F201FB12003030E6
:101F6000934908709FED930B53EC102B8C4890ED28
:101F7000000B51EC100B01F03DFA01F093FB0A212C
:101F800090FBF1F201FB12003030894988708448DF
:101F900090ED000B51EC100B01F084FB0A2190FB3B
:101FA000F1F201FB120030308149C8709FED810BC6
:101FB00053EC102B7A4800E018E090ED000B51EC48
:101FC000100B01F0F7FB01F06DFB0A2190FBF1F221
:101FD00001FB12003030764908717848006828B952
:101FE00000230A4629210120FFF7B4FC7448007839
:101FF00001287DD100207249087070480068C8B976
:1020000070480078302802D120206E4908700023E3
:102010006C4A29210320FFF79DFC6A48407930284B
:1020200002D12020674948710023664A29210320F4
:10203000FFF790FC4920FEF73BFD634908804820EC
:10204000FEF736FD614908800120614908705E484D
:10205000B0F90000002807DA5B480088404284B2EB
:102060002D205C49087005E05748008884B2202084
:1020700058490870642094FBF0F0303051490870E2
:102080000A2094FBF0F00A2190FBF1F201FB120010
:1020900030304C4948700A2094FBF0F100FB1140AD
:1020A00030304849C8704948B0F90000002807DAC4
:1020B00046480088404285B22D204649087105E017
:1020C0004248008885B2202042490871642095FB6F
:1020D000F0F030303B4948710A2095FBF0F00A21BE
:1020E00090FBF1F201FB120030303649887100E0BC
:1020F0000DE00A2095FBF0F100FB11503030314922
:1021000008720020324908703046FEF727FF20464B
:1021100001F03CFB41EC1A0B9FED2F0B53EC102B05
:1021200001F048FB41EC190B9FED2D0B53EC102BEC
:1021300001F0B8F841EC180B01F0E4FA06461F482C
:10214000006801F049F8A7E6A5000020D4000020AF
:1021500041542B4652453D3834350D0A20000000CD
:102160000000014041542B564F4C3D33300D0A00C6
:1021700041542B43414D5055533D310D0A00000051
:10218000AF000020B0000020AE000020D8000020EA
:10219000B8000020F00000200000000000FEAF406A
:1021A000E8000020E000002000000000000059408E
:1021B000F400002000000000000024405000002037
:1021C000B2000020FE000020FA000020FC000020E9
:1021D00008010020BC000020000000000080224018
:1021E0000000000000C0724070B50446002521E0E8
:1021F000002220211148FEF758FC0A20FEF739FE84
:1022000004F0800028B1042211460D48FEF74DFC71
:1022100004E0002204210A48FEF747FC6006040E91
:10222000202211460548FEF740FC0A20FEF721FE59
:10223000681CC5B2082DDBDB70BD000000600040EB
:102240000010064070B50446002210211648FEF723
:102250002CFC002202211548FEF727FC00251BE07C
:10226000002220211048FEF720FC04F0800028B155
:10227000102211460E48FEF718FC04E0002210213F
:102280000B48FEF712FC6000044620221146064867
:10229000FEF70BFC681CC5B2082DE1DB10221146CD
:1022A0000148FEF702FC70BD0050004000100640DF
:1022B0000040024070B50446002210211648FEF787
:1022C000F4FB022211461548FEF7EFFB00251BE048
:1022D000002220211048FEF7E8FB04F0800028B11E
:1022E000102211460E48FEF7E0FB04E00022102108
:1022F0000B48FEF7DAFB202211460748FEF7D5FB14
:1023000060000446681CC5B2082DE1DB10221146AE
:102310000148FEF7CAFB70BD0050004000100640A7
:102320000040024070B51B48007858B300201A499D
:1023300008601A4908601A4908601A4908601A4971
:1023400008600120FFF78EFB01211848406880F8E3
:102350007D10164C646894F87D30144C6468A26853
:10236000124C646894F86940641E012505EBC404AE
:10237000E1B20E4C646894F85500FFF7EBFA652063
:102380000B4908600B480078012802D10020094958
:10239000087070BDCD00002080000020700000207B
:1023A00090000020A00000206000002060030020BA
:1023B00050000020B100002070B51648007840B3EE
:1023C000002015490860154908601549086015493D
:1023D00008601549086001211448406880F87D10A4
:1023E000124C646894F87D30104C6468A2680F4CFD
:1023F000646894F86940641E012505EBC404E1B2E9
:102400000A4C646894F85500FFF7A4FA652008495F
:10241000086070BDCD00002080000020700000200A
:1024200090000020A0000020600000206003002039
:102430005000002070B586480068D8B30020844959
:1024400008606B208349086001218348406880F858
:102450008310814C646894F883307F4C6468226AEE
:102460007D4C646894F86F40641E012505EBC4043C
:10247000E1B2794C646894F85B00FFF76BFA0021D5
:102480007548406880F87D10734C646894F87D301E
:10249000714C6468A268704C646894F86940641E6A
:1024A00005EBC404E1B26C4C646894F85500FFF786
:1024B00051FAA6E0FFE769480068D8B300206749F1
:1024C000086066206349086001216348406880F81D
:1024D0007E10614C646894F87E305F4C6468E268FA
:1024E0005D4C646894F86A40641E012505EBC404E1
:1024F000E1B2594C646894F85600FFF72BFA0021BA
:102500005548406880F87D10534C646894F87D30DD
:10251000514C6468A268504C646894F86940641E29
:1025200005EBC404E1B24C4C646894F85500FFF725
:1025300011FA66E0FFE74A48006860B300204849A6
:10254000086048480068401C464908600846006822
:10255000092801DD002008604248007830304249F7
:1025600008703D4C646894F87D303B4C6468A26808
:10257000394C646894F86940641E012505EBC40475
:10258000E1B2354C646894F85500FFF7E3F9652033
:102590003049086035E03548006860B300203349B1
:1025A000086030480068401E2E49086008460068F0
:1025B000002801DA092008602A48007830302A49CA
:1025C0000870254C646894F87D30234C6468A268D8
:1025D000214C646894F86940641E012505EBC4042D
:1025E000E1B21D4C646894F85500FFF7B3F965201B
:1025F0001849086005E01E48006810B100201C4919
:1026000008601C480078012820D100201949087072
:1026100000211148406880F87D100F4C646894F8E0
:102620007D300D4C6468A2680B4C646894F8694076
:10263000641E012505EBC404E1B2074C646894F8FC
:102640005500FFF787F964200249086070BD00005B
:102650008000002050000020600300207000002057
:10266000900000204000002018000020A000002062
:1026700060000020B400002070B586480068D8B320
:10268000002084490860652083490860012183484F
:10269000406880F87D10814C646894F87D307F4CF0
:1026A0006468A2687D4C646894F86940641E0125E2
:1026B00005EBC404E1B2794C646894F85500FFF767
:1026C00049F900217548406880F87E10734C6468B1
:1026D00094F87E30714C6468E268704C646894F8D9
:1026E0006A40641E05EBC404E1B26C4C646894F863
:1026F0005600FFF72FF9A6E0FFE769480068D8B356
:102700000020674908606720634908600121634829
:10271000406880F87F10614C646894F87F305F4CAB
:10272000646822695D4C646894F86B40641E0125FE
:1027300005EBC404E1B2594C646894F85700FFF704
:1027400009F900215548406880F87E10534C6468B0
:1027500094F87E30514C6468E268504C646894F898
:102760006A40641E05EBC404E1B24C4C646894F802
:102770005600FFF7EFF866E0FFE74A48006860B3ED
:1027800000204849086048480068401C46490860E5
:1027900008460068092801DD0020086042480078EA
:1027A0003030424908703D4C646894F87E303B4CB0
:1027B0006468E268394C646894F86A40641E0125D4
:1027C00005EBC404E1B2354C646894F85600FFF799
:1027D000C1F866203049086035E03548006860B3CC
:1027E00000203349086030480068401E2E490860C8
:1027F00008460068002801DA092008602A480078A5
:1028000030302A490870254C646894F87E30234C97
:102810006468E268214C646894F86A40641E01258B
:1028200005EBC404E1B21D4C646894F85600FFF750
:1028300091F866201849086005E01E48006810B14C
:1028400000201C4908601C480078012820D1002085
:102850001949087000211148406880F87E100F4C1B
:10286000646894F87E300D4C6468E2680B4C6468D0
:1028700094F86A40641E012505EBC404E1B2074CDC
:10288000646894F85600FFF765F864200249086010
:1028900070BD000080000020500000206003002078
:1028A0007000002090000020440000201A0000204A
:1028B000A000002060000020B400002070B5864811
:1028C0000068D8B300208449086066208349086006
:1028D00001218348406880F87E10814C646894F838
:1028E0007E307F4C6468E2687D4C646894F86A408E
:1028F000641E012505EBC404E1B2794C646894F8C8
:102900005600FFF727F800217548406880F87F10CF
:10291000734C646894F87F30714C64682269704C21
:10292000646894F86B40641E05EBC404E1B26C4C1F
:10293000646894F85700FFF70DF8A6E0FFE76948D0
:102940000068D8B3002067490860692063490860BF
:1029500001216348406880F88110614C646894F8F4
:1029600081305F4C6468A2695D4C646894F86D4086
:10297000641E012505EBC404E1B2594C646894F867
:102980005900FEF7E7FF00215548406880F87F10A6
:10299000534C646894F87F30514C64682269504C01
:1029A000646894F86B40641E05EBC404E1B24C4CBF
:1029B000646894F85700FEF7CDFF66E0FFE74A48E9
:1029C000006860B300204849086048480068401C1F
:1029D0004649086008460068092801DD00200860B3
:1029E000424800783030424908703D4C646894F8A1
:1029F0007F303B4C64682269394C646894F86B40C2
:102A0000641E012505EBC404E1B2354C646894F8FA
:102A10005700FEF79FFF67203049086035E03548D2
:102A2000006860B300203349086030480068401EE9
:102A30002E49086008460068002801DA092008606D
:102A40002A48007830302A490870254C646894F888
:102A50007F30234C64682269214C646894F86B4091
:102A6000641E012505EBC404E1B21D4C646894F8B2
:102A70005700FEF76FFF67201849086005E01E4801
:102A8000006810B100201C4908601C48007801282B
:102A900020D100201949087000211148406880F8B1
:102AA0007F100F4C646894F87F300D4C6468226985
:102AB0000B4C646894F86B40641E012505EBC4045C
:102AC000E1B2074C646894F85700FEF743FF6420B6
:102AD0000249086070BD0000800000205000002006
:102AE00060030020700000209000002048000020BB
:102AF0001C000020A000002060000020B400002086
:102B000070B586480068D8B3002084490860672003
:102B10008349086001218348406880F87F10814C18
:102B2000646894F87F307F4C646822697D4C6468E7
:102B300094F86B40641E012505EBC404E1B2794CA6
:102B4000646894F85700FEF705FF00217548406857
:102B500080F88110734C646894F88130714C64681B
:102B6000A269704C646894F86D40641E05EBC4045F
:102B7000E1B26C4C646894F85900FEF7EBFEA6E0F5
:102B8000FFE769480068D8B30020674908606B20F8
:102B90006349086001216348406880F88310614CF4
:102BA000646894F883305F4C6468226A5D4C6468A2
:102BB00094F86F40641E012505EBC404E1B2594C42
:102BC000646894F85B00FEF7C5FE00215548406834
:102BD00080F88110534C646894F88130514C6468DB
:102BE000A269504C646894F86D40641E05EBC404FF
:102BF000E1B24C4C646894F85900FEF7ABFE66E015
:102C0000FFE74A48006860B3002048490860484828
:102C10000068401C4649086008460068092801DD34
:102C200000200860424800783030424908703D4C2E
:102C3000646894F881303B4C6468A269394C6468DC
:102C400094F86D40641E012505EBC404E1B2354CD7
:102C5000646894F85900FEF77DFE692030490860E9
:102C600035E03548006860B30020334908603048DB
:102C70000068401E2E49086008460068002801DAF6
:102C8000092008602A48007830302A490870254C0D
:102C9000646894F88130234C6468A269214C6468AC
:102CA00094F86D40641E012505EBC404E1B21D4C8F
:102CB000646894F85900FEF74DFE692018490860D1
:102CC00005E01E48006810B100201C4908601C483F
:102CD0000078012820D100201949087000211148EE
:102CE000406880F881100F4C646894F881300D4C76
:102CF0006468A2690B4C646894F86D40641E0125F9
:102D000005EBC404E1B2074C646894F85900FEF77F
:102D100021FE64200249086070BD00008000002090
:102D20005000002060030020700000209000002070
:102D30004C00002020000020A000002060000020A7
:102D4000B400002070B5C3480068E0B3C248006812
:102D50004FF47A714843C149096801EBC10202EBA3
:102D6000011100EB8100BE49096801EB810100EB14
:102D70004100BC4909680844B0F5876F18DCB648C3
:102D800000684FF47A714843B449096801EBC10205
:102D900002EB011100EB8100B149096801EB8101EF
:102DA00000EB4100AF4909680844B0F55C7F14DAD4
:102DB0000020A8490860AC490870FEF7AFFD00216B
:102DC000AA48406800E008E080F883100220FEF77F
:102DD00049FEC820A64908600EE19E480068002808
:102DE0007DD09D4800684FF47A7148439B4909683B
:102DF00001EBC10202EB011100EB81009849096867
:102E000001EB810100EB4100964909680844B0F5E7
:102E1000876F64DC904800684FF47A7148438F49AB
:102E2000096801EBC10202EB011100EB81008C4942
:102E3000096801EB810100EB41008A4909680844F7
:102E4000B0F55C7F4BDB0020824908600120864999
:102E500008708148007830308649C8717F48007812
:102E6000303008727E480078303048727D480078F3
:102E7000303088728048006840F6B831B0FBF1F01D
:102E8000C82100FB01F42046FDF70AFA79497B4886
:102E9000FEF712FDFEF742FD00217448406880F8FD
:102EA0008310724C646894F88330704C6468226AB2
:102EB0006E4C646894F86F40641E012505EBC404F1
:102EC000E1B26A4C646894F85B00FEF743FD0320AE
:102ED000FEF7C8FD6F20664908608DE0FFE768488F
:102EE0000068D8B30020664908606920604908601E
:102EF00001215E48406880F881105C4C646894F859
:102F000081305A4C6468A269584C646894F86D40EA
:102F1000641E012505EBC404E1B2544C646894F8C6
:102F20005900FEF717FD00215048406880F88310D3
:102F30004E4C646894F883304C4C6468226A4B4C65
:102F4000646894F86F40641E05EBC404E1B2474C1A
:102F5000646894F85B00FEF7FDFC4DE0FFE749482C
:102F60000068D8B3002047490860652040490860E0
:102F700001213E48406880F87D103C4C646894F81C
:102F80007D303A4C6468A268384C646894F86940B3
:102F9000641E012505EBC404E1B2344C646894F866
:102FA0005500FEF7D7FC00213048406880F88310B8
:102FB0002E4C646894F883302C4C6468226A2B4C45
:102FC000646894F86F40641E05EBC404E1B2274CBA
:102FD000646894F85B00FEF7BDFC0DE0FFE72A484B
:102FE000006818B100202849086005E027480068FB
:102FF00010B100202549086025480078012802D139
:1030000000202349087023480078012820D100209F
:103010002049087000211548406880F88310134C3F
:10302000646894F88330114C6468226A0F4C6468B9
:1030300094F86F40641E012505EBC404E1B20B4C0B
:10304000646894F85B00FEF785FC6420084908601A
:1030500070BD0000600000204000002044000020FF
:10306000480000204C000020D00000206003002019
:103070005000002009010020D40000200000014081
:10308000800000207000002090000020A0000020A0
:10309000B3000020B400002010B51948006818B132
:1030A0000020174908601AE01648006818B100208F
:1030B0001449086013E01448006818B10020124950
:1030C00008600CE01148006818B100200F49086042
:1030D00005E00F48006810B100200D4908600D4858
:1030E000007801280AD100200A490870FEF716FC72
:1030F0000020FEF7B7FC00200749086010BD000063
:10310000800000207000002090000020A00000201F
:1031100060000020B30000205000002070B5264859
:10312000006818B100202449086013E023480068B3
:1031300018B10020214908600CE02148006818B14E
:1031400000201F49086005E01E48006810B10020FB
:103150001C4908601C480078012802D100201A4947
:1031600008701A480078012825D1002017490870F6
:10317000FEF7D4FB0120FEF775FC012114484068DE
:1031800080F87D10124C646894F87D30104C6468AF
:10319000A2680F4C646894F86940641E012505EB31
:1031A000C404E1B20A4C646894F85500FEF7D2FBFF
:1031B00065200849086070BD800000207000002074
:1031C00090000020A0000020B4000020B3000020E8
:1031D000600300205000002010B50446672C1DD06D
:1031E00007DC7CB1642C10D0652C11D0662C24D166
:1031F00011E0692C15D06B2C16D06F2C1AD0C82C6E
:103200001BD114E0FFF78EF818E0FFF7D5F815E0B2
:10321000FFF710F912E0FFF72FFA0FE0FFF74EFB70
:103220000CE0FFF76DFC09E0FFF78CFD06E0FFF70F
:1032300075FF03E0FFF730FF00E000BF00BF10BDE7
:1032400021F00042A2F16052B2F5801F01F000436C
:1032500028BFD2F17F6C0BD95FEA001C43EAC2029F
:1032600042EB507018BF704728BF20F00100704734
:10327000B2F5801FBCBF184670474FEA410C1CF5E1
:10328000001F02D2084600F082BC70B500F03CFB83
:1032900000000089FFF7F6BF4FF00040A0F5800066
:1032A0007047000010B591EA030F48BF83F0004358
:1032B00000F18683841A71EB030C05D2121943EBDB
:1032C0000C03001B61EB0C01DFF824E14FEA115401
:1032D000A4EB135C1EEA430F18BF9EEA445F73D051
:1032E00023EA0E03DCF1200E21EA045143F480139B
:1032F00032D322FA0CFE10EB0E0023FA0CFE41EB47
:103300000E01CCF1200E03FA0EFE10EB0E0051F16F
:103310000001B1F5801FCCF1200E32D201EB045137
:1033200012FA0EF2BDE8104058BF7047401C38BF7B
:103330005FEA420218BF7047002814BF20F0010066
:1033400041F100014FEA410313F5001F38BF7047F8
:10335000A1F1C04100F026BB012A43EB0302ACF10E
:10336000200CDCF11F0E32BF4FF0000E23FA0CF3DD
:1033700010EB030041EB0451B4EB115FD0D0A1EB93
:10338000045101F5801149085FEA300001EB045156
:103390000ED350F1000038BF12FA0EFE08D1BDE87E
:1033A0001040C9E7401C38BF5FEA4202CAD1C3E7F8
:1033B000BDE810404FEA410313F5001F38BF7047C6
:1033C000A1F1C04100F0EEBA9EEA445F08D011EAD4
:1033D0005E0FBDE8104004BF01F0004100207047BF
:1033E000BDE8104070B500F08FFA00BF64FBBE3E30
:1033F0000000E0FF2DE9C04130B4DFF8A0C23CEA94
:10340000111418BF3CEA131400F0EC8081EA0305A4
:103410001CEA111444EAD57418BF1CEA131500F015
:10342000C780A4EB05044FF0004545EAC12145EAF9
:10343000C32341EA505143EA525304F17F74994245
:1034400004F500344FEAC0204FEAC22208BF904280
:1034500000F09C804FEA13650FF24016765D4FEA4C
:10346000134506FB05F7C7F1807706FB07F74FEA20
:10347000D737A7FB03687642C8F58038A7FB06CE8E
:1034800038BFA8F1010807FB08E64FF0000EA6FBC5
:10349000028CE6FB03CEDCF1000CCEF1004E38BF0F
:1034A000AEF1010EA6FB0C584FF000074FF00005DF
:1034B000E6FB0E87A1FB08C6A0FB07CE16EB0E06A7
:1034C00045F10005E1FB076515F1E04E7EBFA4F56F
:1034D00080345FEA46066D4116F1800745F100052C
:1034E0004FEA17274FEA066647EA0567A6F1DE4668
:1034F000B6F1805F4FEA15251FD9384624F0010C3C
:1035000005EBC471BCF1FE6F01EB0C1102D8F0BCED
:10351000BDE8008124425CBF01F5801E9EEAC47FA5
:1035200002D4F0BCBDE80081244238D4F0BCA1F143
:10353000C041BDE8004100F035BA4FEAD22242EA6C
:1035400043524FEAD323A7FB02864FEAD02040EA3A
:10355000415007FB03661EEA0E0F4FEAD12105FB1F
:10356000026658BFA6EB0056B6EB00564FEA520E65
:103570004EEAC37E18EB0E0E56EB530EBDD518EB7C
:1035800002085E417F1C55F10005B6E74FF4801537
:103590004FF000074FF000064FF00008ADE7F0BC19
:1035A0004FF0000001F1C04101F00041BDE8008191
:1035B00011EA0C1F0CEA131500D00CE013EA0C1FE3
:1035C00000F025804FF00000F0BC81EA030101F01B
:1035D0000041BDE80081F0BCBDE8004181EA030183
:1035E00000F0E0B9F0BCBDE8004170B500F08CF926
:1035F000097EFC3E00F007B881EA03014FF00000AD
:1036000001F00041704781EA030100F0CBB9F0BC42
:10361000BDE800414FF0000021497047FFFDFBF974
:10362000F7F5F4F2F0EEEDEBE9E8E6E4E3E1E0DEF5
:10363000DDDBDAD8D7D5D4D3D1D0CFCDCCCBCAC867
:10364000C7C6C5C4C2C1C0BFBEBDBCBBBAB9B8B78E
:10365000B6B5B4B3B2B1B0AFAEADACABAAA9A8A881
:10366000A7A6A5A4A3A3A2A1A09F9F9E9D9C9C9B4F
:103670009A999998979796959594939392919190FA
:103680008F8F8E8E8D8C8C8B8B8A8989888887878B
:103690008685858484838382828181800000FF0700
:1036A0000000F87F4FEA41034FEA5353A3F58063CC
:1036B000D3F11E03C8BFD3F1210C0CDD4FF0004243
:1036C00042EAC12242EA505232FA03FC8CEAE17C1F
:1036D000ACEBE1707047102BC4BF0020704703F5BE
:1036E000787CBCF1FF3F04D06FF0004282EA2100F9
:1036F000704770B500F008F94992248000207047A7
:10370000F2E700004FEA1153A3F58063D3F11E03E3
:10371000A8BFD3F1200C08DB4FF0004242EAC122DF
:1037200052EA505232FA03F0704709420BD4102B80
:10373000C4BF0020704703F5787CBCF1FF3F05D083
:103740004FF0FF3070474FF00000704770B500F049
:10375000DBF800BF4992248000207047F0E710F0AA
:10376000004248BF4042B0FA80F310FA03F10AD099
:10377000C3F11D0303F580634FEA415002EB03528E
:1037800002EBD12170474FF000007047B0FA80F390
:1037900010FA03F10AD0C3F11D0303F580634FEA69
:1037A00041504FEA035202EBD12170474FF0000025
:1037B00070470000DFF848C170B51CEA111E1EBF3B
:1037C0001CEA13159EEA0C0F95EA0C0F00F06F80AF
:1037D00081EA030423EA4C134EEAD47E21EA4C1119
:1037E00041F4801143F48013AE44A1FB024CA0FBD2
:1037F0000365AEF17F7E361955EB0C05A1FB034C3A
:103800004CF10003A0FB021C16EB0C06654153F1C2
:103810000003094218BF46F0010613F4007F0BD1E4
:103820004FEA03314FEA0530340341EA155140EACB
:1038300016506FF003020AE04FEAC3214FEAC52099
:10384000F40241EA555140EA56506FF0020202EB91
:103850002E4201EB025585EACE710AD05FEA440C94
:1038600018BF24F0004450F1000041F1000120EAAB
:10387000D47040F2FE7C624500D270BDA84214BFF5
:103880004FF080444FF04044002E08BF0024BEF1AA
:10389000806FA8BFA1F1C041BDE8704080F2828076
:1038A0004FF0000001F1C04101F0004170479EEA75
:1038B0000C0F0CEA131518BF95EA0C0F06D04FF049
:1038C000000081EA030E0EF0004170BD00F01CF80C
:1038D0008900013E00F007B800F009B84FEA430C38
:1038E0005FEA5C5C08D081EA030100F05BB84FEA54
:1038F000410C5FEA5C5CF6D14FF000000149704773
:103900000000FF070000F87F0EF1020E2EF0030EFC
:103910005EF8046B364205D4012A43EB030515F526
:10392000001F12D8012841EB010C1CF5001F0CD818
:103930000ED14FEAD17C15F5001F0CEB4C0C0CF1AD
:10394000020C08BF4CEBD37C04E04FF0080C01E004
:103950004FEAD37C0CEB4C0526FA05F606F0070679
:10396000B6F1040C06D20EEB860CBDE870404CF0AC
:10397000010C6047DFE80CF0090B02024FF0004138
:103980004FF00000A1F5002170BD19461046012836
:1039900051EB010418BFD4F5001484BF002001F0DE
:1039A000004170BD0808A0F500114FEA31017047D1
:1039B00010B591EA030F48BF83F000433FF57AAC9E
:1039C000841A71EB030C07D212198CF0004C43EBF4
:1039D0000C03001B61EB0C01DFF8A4E14FEA11546A
:1039E000A4EB135C1EEA430F18BF9EEA445F00F08D
:1039F000B08023EA6E03524221EA0451C3EB6E0306
:103A000038BF5B1EDCF1200E25D322FA0CFE10EB32
:103A10000E0043FA0CFE41EB0E01CCF1200E03FA2E
:103A20000EFE10EB0E0051F10001CCF1200E29D456
:103A300012FA0EF201EB0451BDE8104058BF704776
:103A4000401C1CBFB2F1004F704700280CBF491C3E
:103A500020F00100704712EB020E43EB030218BF87
:103A60004FF0010E4EEA4202ACF1200CDCF11E0ECA
:103A700054D943FA0CFE10EB0E0051F1FF31CCF19A
:103A80001E0ED5D50EF1010E12FA0EFE404141EB8D
:103A9000010101EB445C5FEA5C5C10D910EBDE7065
:103AA00001EB045138BFBEF1004FBDE8104018BF14
:103AB000704700280CBF491C20F00100704730D22D
:103AC0004FEAD42C11F5001124F400641BD0B1FA94
:103AD00081F20B3AA41AA41ED2F12003914030FACD
:103AE00003F31943904001EBCC71002C01EB04511E
:103AF000BDE81040A8BF704701F1C0414FF0000081
:103B000001F000417047B0FA80F310FA03F100D1E0
:103B100010BDE41A173C4805C90AE4E701EB04515B
:103B200010BD491001EB0451BDE810404FEA3000D0
:103B300002E04FF0000170474A0008BF0042F8D091
:103B4000B2F5001F28BF704701F000414FF00000A0
:103B500070479EEA445F07D011EA5E0FBDE810404F
:103B600004BF002100207047BDE8104070B5FFF78A
:103B7000CBFE00BF40DFF63E83F0004110467047A9
:103B80000000E0FF4FF04070E1EE100A7047FF21A7
:103B900041EAD050C00570470040004010000000CE
:103BA000008005401000000000500040110000009F
:103BB000009005401100000000600040120000006D
:103BC00000A005401200000000700040130000003B
:103BD00000B0054013000000004002401400000047
:103BE00000C0054014000000005002402E000000FC
:103BF00000D005402E000000006002402F000000B1
:103C000000E005402F00000000700240300000007E
:103C100000F005403000000000D0034046000000E6
:103C2000000006404600000000100640470000006B
:103C30000020064048000000003006407F000000E1
:103C40000040064080000000005006408400000054
:103C5000006006408C0000000040004010000000A2
:103C600000800540100000000050004011000000DE
:103C700000900540110000000060004012000000AC
:103C800000A005401200000000700040130000007A
:103C900000B0054013000000004002401400000086
:103CA00000C0054014000000005002402E0000003B
:103CB00000D005402E000000006002402F000000F0
:103CC00000E005402F0000000070024030000000BE
:103CD00000F005403000000000D003404300000029
:103CE00000000640430000000010064044000000B1
:103CF000002006404500000000300640580000004B
:103D00000040064059000000005006405C000000E2
:103D10000060064064000000007006406C00000077
:103D2000008006406D000000009006407F0000000B
:103D300000400040008005400050004000900540D9
:103D40000060004000A005400070004000B0054049
:103D50000040024000C005400050024000D0054035
:103D60000060024000E005400070024000F00540A5
:103D700000D003400000064000100640001006403E
:103D8000002006400020064000300640003006407B
:103D900000400640004006400050064000500640EB
:103DA000006006400060064000700640007006405B
:103DB00000800640008006400090064000900640CB
:103DC00000688909001C4E0E40420F0000201C00B4
:103DD00080841E0000802500999E36000040380037
:103DE00000093D0000803E0000004B00404B4C00AD
:103DF00000204E00808D5B0000C05D0000807000E0
:103E000000127A0000007D0080969800001BB70029
:103E10000080BB00C0E8CE00647ADA000024F40021
:103E20000000FA0080A81201002D310100366E0159
:103E300040787D014000000000000000000100000B
:103E40003E0008000000000000010000A00000008B
:103E500002000000000100003454010000000000D6
:103E6000000100002B7006000000000000010000AF
:103E700028000000000000000001000027000100F1
:103E80000000000000010000200000000000000011
:103E900000010000500000000200000000010000CE
:103EA0001AAC000000000000000100001794090097
:103EB000000000000001000016980500000000004E
:103EC00000010000140000000000000000010000DC
:103ED000138008000000000000010000A0000000A6
:103EE00008000000000100001000000000000000B9
:103EF0000001000028000000020000000001000096
:103F0000400000000400000000010000600000000C
:103F100000000000000100005D000C000000000037
:103F2000000100005000000000000000000100003F
:103F30004E000200000000000001000041AC010042
:103F400000000000000100003C0000000000000034
:103F5000000100003A80090000000000000100009C
:103F600030000000000000000001000028000000F8
:103F70000000000000010000270001000000000018
:103F800000010000236006000000000000010000A6
:103F90002160080000000000000100001E00000079
:103FA00000000000000100001DC00400000000002F
:103FB00000010000500000000200000000010000AD
:103FC00018000000000000000001000014000000C4
:103FD000000000000001000060000000040000007C
:103FE000000100000024F40030003000005A62029A
:103FF0009100910000879303D200D20000B4C40462
:104000001301130100E1F50554015401000E2707C7
:1040100095019501344000000000002020010000BF
:104020003C0200005441000020010020B0040000C8
:1040300058020000B5E7D1B93A00CEC2B6C83A007E
:104040005600A1E600D4D8C6B5A3BA0031003000AE
:1040500031002E0037004D487A00C8B7B6A800D40A
:10406000D8C6B5B3ACB7B6CEA7A3A100C7EBB5C849
:10407000B4FD21000100000000000000010000006C
:104080000700000000000000000000000000000029
:104090000000000000000000000000000000000020
:1040A0000000000000000000000000000000000010
:1040B0000000000000000000000000000000000000
:1040C00000000000000000000000000000000000F0
:1040D00000000000000000000000000000000000E0
:1040E00000000000000000000000000000000000D0
:1040F0002020202020202020440101010101010175
:1041000000000000000000000000000000000000AF
:10411000000000000000000000000000000000009F
:104120000000000000000000332E3330300000009B
:10413000000032352E302033302E35000041542B14
:104140004652453D313038300D0A00000000000075
:044150000024F40053
:04000005000002D124
:00000001FF
